:10000000E07A0100E1010000E9010000EB010000DD
:1000100000000000000000000000000000000000E0
:1000200000000000000000000000000013020000BB
:10003000000000000000000015020000A1FE00000A
:10004000618B00005F8B00005D8B00005B8B00000C
:10005000578B0000558B0000538B0000518B000024
:100060000000000000000000000000000000000090
:10007000C9FB00000000000000000000794C0000F7
:10008000A14C0000454C0000A94600000000000003
:1000900085E5000049DD000089100100DD10010048
:1000A00019020000B9460000BD460000F96F0000CB
:1000B00015470000BB4600002D070000398C0000EA
:1000C000DEC0ADDE000360001699FF0000000000F6
:1000D00044656320203720323032320032313A35E5
:1000E000373A313100000000050000000000000038
:1000F00000000000000000000000000000000001FF
:100100000D01000043D10000383558587206D00266
:100110001A06A9020000000000000000CEFAAD0B94
:1001200000F002F800F030F80CA030C808382418AD
:100130002D18A246671EAB4654465D46AC4201D11F
:1001400000F022F87E460F3E0FCCB6460126334221
:1001500000D0FB1AA246AB463343184718290100CA
:10016000382901000023002400250026103A01D37D
:1001700078C1FBD8520700D330C100D50B6070475F
:100180001FB51FBD10B510BD00F072FA1146FFF784
:10019000F7FF12F02DF900F08AFA03B4FFF7F2FF2F
:1001A00003BC00F091FA000070B505460C461646F7
:1001B00002E00FCC0FC5103E102EFAD2082E02D34B
:1001C00003CC03C5083E042E07D301CC01C5361F5E
:1001D00003E021782970641C6D1C761EF9D270BD75
:1001E0001148804711480047FEE71149114808604F
:1001F00011491248086004207146084201D004D118
:10020000FEE7EFF3088008F02FFCEFF3098008F019
:100210002BFCFEE7FEE7FEE7FEE700000848054985
:10022000074A084B7047000051FF00002101000001
:1002300044400100E07A0100484001000004000051
:10024000E0760100E076010010B5202A04DB0146CB
:10025000203A9140002010BD914020239C1A034673
:10026000E3401943904010BD10B5202A04DB084636
:10027000203AD040002110BD0B462024D340D0406E
:10028000A21A91400843194610BDFEB50546104616
:100290000C46184373D0AE468C460020AD1A01467A
:1002A0009C4167D36646002701243D46B61A9D410E
:1002B00002D313463A462124654676462F04360C6F
:1002C0003E432D0CB61A9D4104D3150C1B042B4341
:1002D00012041034654676462F06360A3E432D0A30
:1002E000B61A9D4104D3150E1B022B43120208348B
:1002F000654676462F0736093E432D09B61A9D41BD
:1003000004D3150F1B012B431201241D65467646AD
:10031000AF07B6083E43AD08B61A9D4104D3950F0A
:100320009B002B439200A41C65467646EF07760897
:100330003E436D08B61A9D411AD392185B41641C66
:1003400016E00018764665464941B71A9D4101916D
:10035000009009D36046B11A98418E4684460098B1
:1003600001990025401C6941DD0752082A435B08BA
:10037000641EE6D57246634603B0F0BDFFE7002079
:100380000146C046C0462A462346F5E7F8B5042A8A
:100390002CD3830712D00B78491C0370401C521ECB
:1003A00083070BD00B78491C0370401C521E830737
:1003B00004D00B78491C0370401C521E8B079B0F06
:1003C00005D0C91ADF002023DE1B08C90AE0FFF7A9
:1003D000EBFEF8BD1D4608C9FD401C46B4402C4349
:1003E00010C0121F042AF5D2F308C91A521EF0D405
:1003F0000B78491C0370401C521EEAD40B78491C30
:100400000370401C012AE4D409780170F8BDD2B20F
:1004100010B513029A1813049A1800F00EF810BDC4
:1004200001E004C0091F0429FBD28B0701D502801B
:10043000801CC90700D00270704700290BD0C30789
:1004400002D00270401C491E022904D3830702D542
:100450000280801C891EE3E70022EEE70022DFE72E
:100460000378C2781946437812061B021943837831
:10047000C0781B04194311430902090A0006084306
:100480007047002203098B4273D3030A8B4258D36F
:10049000030B8B423CD3030C8B4221D312E0034667
:1004A0000B437FD4002243088B4274D303098B4251
:1004B0005FD3030A8B4244D3030B8B4228D3030C34
:1004C0008B420DD3FF22090212BA030C8B4202D3D6
:1004D0001212090265D0030B8B4219D300E0090AFE
:1004E000C30B8B4201D3CB03C01A5241830B8B4207
:1004F00001D38B03C01A5241430B8B4201D34B03F0
:10050000C01A5241030B8B4201D30B03C01A524154
:10051000C30A8B4201D3CB02C01A5241830A8B42D9
:1005200001D38B02C01A5241430A8B4201D34B02C2
:10053000C01A5241030A8B4201D30B02C01A524126
:10054000CDD2C3098B4201D3CB01C01A52418309DA
:100550008B4201D38B01C01A524143098B4201D314
:100560004B01C01A524103098B4201D30B01C01A3F
:100570005241C3088B4201D3CB00C01A52418308B9
:100580008B4201D38B00C01A524143088B4201D3E6
:100590004B00C01A5241411A00D201465241104646
:1005A00070475DE0CA0F00D04942031000D34042BB
:1005B000534000229C4603098B422DD3030A8B42F1
:1005C00012D3FC22890112BA030A8B420CD389018F
:1005D00092118B4208D3890192118B4204D3890175
:1005E0003AD0921100E08909C3098B4201D3CB01B3
:1005F000C01A524183098B4201D38B01C01A524168
:1006000043098B4201D34B01C01A524103098B426B
:1006100001D30B01C01A5241C3088B4201D3CB0056
:10062000C01A524183088B4201D38B00C01A524139
:10063000D9D243088B4201D34B00C01A5241411A10
:1006400000D20146634652415B10104601D340423E
:10065000002B00D54942704763465B1000D34042EF
:1006600001B50020C046C04602BD704770477047C4
:10067000754600F025F8AE46050069465346C008A9
:10068000C000854618B020B5FFF7C8FD60BC002744
:100690004908B6460026C0C5C0C5C0C5C0C5C0C54E
:1006A000C0C5C0C5C0C5403D49008D46704710B5A6
:1006B0000446C046C0462046FFF76FFD10BD00004F
:1006C000004870478076010001491820ABBEFEE764
:1006D00026000200704770B58C180578401C6B0727
:1006E0005B0F01D10378401C2A1106D10278401C0F
:1006F00003E00678401C0E70491C5B1EF9D12B07E5
:1007000005D40023521E0DD40B70491CFAE7037860
:10071000401CCB1A921C03E01D780D70491C5B1C19
:10072000521EF9D5A142D8D3002070BD7047704742
:10073000F8B505464948807C00287DD048481123FB
:10074000407A49496E220024DB01464F504342184B
:100750000A20604316182D2040013018007A002826
:100760000AD10819C0180078002805D11420604368
:10077000C019807C002803D0641CE4B20B2CE7D3A2
:100780000B2C69D0384801260019C1180E70374B60
:10079000002119553346364E335545235B01C018A9
:1007A00001730A20684316180A23B5206343C0006A
:1007B000D718311838180A22FFF7E8FD2D21490112
:1007C0000120791808722B480E23817D0B22594392
:1007D000254BD201C9180F23BA189B01578DCB188E
:1007E0005F83928D9A830B22D201B218D28DDA8365
:1007F0002D225201B218204E8919167C0E70527C9F
:100800004A7016211D4A69438918092292018918E4
:10081000098A19841A4A1C76927B0021002A0DD974
:10082000114B0E264E43F6182036367CAE4205D0CC
:10083000491CC9B28A4200E00EE0F2D80E225143B0
:10084000094A891820310C74817D491CC9B281750F
:100850000B2901D90B218175F8BD0000114E010053
:1008600014EE0100EA660100B4E50100745B0100CA
:100870001871010074E90100E3030000C66701007C
:10088000D4E50100F8B58006800E1B246403089FA0
:10089000079E069DA070E170636001208007A06044
:1008A000E06027610A4805724672D006C00E2070CB
:1008B00003202075012011F0E5FC607DC00704D005
:1008C00011F08EFB607DC007FAD100202075F8BDC5
:1008D00020600300F8B58906114D890E079F069E1A
:1008E00069748006800EA8749006800EE87401205A
:1008F00080071B246403A0606360E660EF7303203D
:100900002874012011F0BEFC01E011F069FB607D4C
:100910008006FAD4607DC007F7D12874F8BD0000C6
:1009200060600300F8B59C460B460A999646090795
:100930000246090F1B246403079F089E099D069821
:1009400061709106890EA170E37061466160A060DC
:1009500027612662E5607046C006C00E2070022046
:10096000207500BF03202075012011F08BFC00BF13
:10097000607DC00704D011F033FB607DC007FAD161
:1009800000202075F8BD0000F8B5274E2748317BC0
:10099000017027480027427B2848264CC11DC030E3
:1009A000254DF931264B807B002A04D0002802D047
:1009B000C87E587605E0767E5E76002A0ED0002846
:1009C0000CD020484078002803D027702F701F7665
:1009D00014E0FF202070287018760FE01A4EB678C9
:1009E000002E03D027702F701F7603E0FF2626709D
:1009F0002E701E76002A06D0002804D0887E81063C
:100A00000A48890E017011480122C17C1048012951
:100A100006D00B2903D10178114303F0C1FDF8BDC5
:100A20000C4B0C211970F6E7E04B01004014030059
:100A3000514D01004011030040130300B14C01006F
:100A400040530300D14D0100A84B0100AD48010007
:100A5000E0D303004016030010B51348134A017B8E
:100A600011701349407B48761248134A4078134B63
:100A7000002804D0002010701870087603E0FF20D2
:100A80001070187008760E480122C17C0D480129AB
:100A900006D00B2903D10178114303F081FD10BD6D
:100AA000094B0C211970F6E7E04B010040140300DC
:100AB00040530300A84B0100401103004013030002
:100AC000AD480100E0D30300401603000448054987
:100AD000407A08700449A0200870044908707047E3
:100AE0000B4C01004014030000110300001303002D
:100AF000054910208870C521890288750349332073
:100B00004872034948727047001203004015030001
:100B10004016030070470000054910208870C52169
:100B20008902887503493320487203494872704727
:100B3000001203004015030040160300F0B45F48A4
:100B40005F49427B002A05D0C87D83065D489B0E25
:100B5000037005E05C48C07983065A489B0E037019
:100B60005A4E022030740820707459480523437689
:100B70000223C520800243700A23C371554D287992
:100B8000FD242040012318432871534D287920402B
:100B900018432871FF27514B514C0020002A03D0E5
:100BA000097E002904D106E04E49497C002902D083
:100BB0001870207001E01F702770454C217EDF22E5
:100BC0001140102319432176317EDD2211403F4A26
:100BD0001943117644490A7E402632430A76434A35
:100BE000167E40273E431676267E7606760E2676BD
:100BF00008751075374C6071374D68713C4D2E7C0F
:100C0000FD253B4F2E403E743A4E367C394F2E40E8
:100C10003E740E792E400E7116792E4016710D79A4
:100C2000C02635430D71157935431571257DEE06C6
:100C3000F60E11252E432675274E367D264FF606D5
:100C4000F60E2E433E752C4EB370C526B602B37514
:100C50002A4F33267E722A4F7E72A0260E7016709F
:100C6000284908732849C874274A06219174517489
:100C70001074D0750F219175042151751075D076BF
:100C8000072191765376107620490874204908741C
:100C90002048057720480577204901200876094932
:100CA0000876202020700C4908701349E020C87590
:100CB000C5218902C875F0BC70470000514D010084
:100CC000714D010040140300684B01002014030023
:100CD00020120300601103006013030040110300A1
:100CE00040130300884B01000011030000130300B0
:100CF000A0110300A013030000120300401503001D
:100D00004016030020160300405303008011030027
:100D100080130300001503000016030040120300B7
:100D20000D49C02008710D4908710D490120087452
:100D30000C4908740C4A422010750C4B18750C496C
:100D4000552008760B48017E89088900491C0176E8
:100D50000420507158717047001103000013030004
:100D6000A0110300A013030060110300601303002F
:100D7000201403002012030030B4CB480078CA4985
:100D800000200870087900200871087A0020087295
:100D9000087B00200873087C400840000874C348A2
:100DA000007CBF210840C1490874087CDF2108404D
:100DB000BE490874087C10210843BC490874087CAB
:100DC000F1210840B94A08301074107C0122104308
:100DD000B64A1074B648C078EF221040B44AD070BA
:100DE000D07801221043B24AD0709078EF221040A0
:100DF000AF4A9070907801221043AD4A907090797C
:100E0000EF221040AA4A90719079400840009071FA
:100E10005079EF221040A64A5071507940084000A6
:100E200050711079EF221040A14A107110794008DA
:100E300040001071507DEF2210409D4A5075507D4A
:100E4000400840005075107DEF221040984A107500
:100E5000107D40084000107596480079954A80063C
:100E6000800E1071107902221043924A1071107D89
:100E70000009000110758D4840798C4AC008C000F7
:100E8000801D5071107D0007000FA0301075107D7F
:100E90000009000110758848007C02221043864A30
:100EA00010748648007CBF221040844A1074107C65
:100EB000DF221040814A1074107C102210437F4AB8
:100EC0001074107C084008301074107C0121084315
:100ED00010747B49C878EF221040C870C87801228E
:100EE0001043C8708878EF221040887088780122FB
:100EF000104388708879EF22104088718879400803
:100F00004000887148791040487148794008400095
:100F1000487108791040087108794008400008714C
:100F2000487D10404875487D400840004875087D60
:100F300010400875087D4008400008756148427AF5
:100F4000DF231A404272427AEF231A404272437AF8
:100F5000F72213404372437AFB2423404372437ABF
:100F6000FD2423404372437A01252B434372037AC5
:100F70005B065B0E0372037A40252B430372037AF0
:100F8000DF252B400372037AEF252B400372037A8F
:100F900013400372027A04231A430272027A224037
:100FA0000272027A01231A430272474A13799B069E
:100FB0009B0E13711379022423431371137D1B09B4
:100FC0001B0113753D4A52793C4BD208D200921D49
:100FD0005A711A7D1207120FA0321A751A7D120962
:100FE00012011A75394A137C23431374384A937DCE
:100FF0001B091B019B1D9375537D1B091B019B1D29
:101000005375937E9B099B011B1D9376314A937CFC
:10101000DB08DB005B1C9374537C8F2423405374E8
:10102000537CDB08DB005374137CDB08DB005B1CA8
:101030001374294A137E012423431376274A937D90
:10104000102423439375C5229202937D2343937505
:10105000027F08231A430277214A147F1C43147726
:10106000037FDB08DB000377107FC008C000107728
:101070001C48427A1C4BD2091C79D2016406640ECA
:1010800022434272027A012422430272027A02242B
:1010900022430272154A987B107300200877044996
:1010A000087730BC70470000201303006013030072
:1010B0000016030000130300A013030060110300D7
:1010C000001503002015030000110300A011030008
:1010D00040530300A051030020140300001203003A
:1010E0002016030040500300694E0100E050030049
:1010F000F0B5944889B0457A93486E24837D039374
:10110000924B00229C462B466343914CC07D1C1998
:10111000904B1146DB7802908D4811264018F6015D
:10112000019080190678042E10D0002E13D00226CC
:1011300006700A264E43A7192D267601BE19367A67
:10114000002E42D000268675C6724CE0002606703E
:101150008675C67247E00A264E43A7192D267601EA
:10116000BE19367A002E2AD0867D0096002E04D134
:101170004327019E7F01F619757566463678002E65
:1011800007D114270E467E43734FF619B67C002E06
:101190000CD000268675032B0BD0F7B2039EB74206
:1011A00010D966463678002E06D00BE0009E761CDD
:1011B000F0E73606360E05D00126067002E000265E
:1011C0008675C672521CD2B20DE0C67A761CF6B293
:1011D000C672032B03D0029FBE4202D803E0002E4A
:1011E00001D004260670491CC9B20B2994D30B2ADE
:1011F00004D15A49002008705949C87059480890CC
:101200000024857F25E0A0420BD951491122D2014B
:101210000B199B181B78002B03D0641CE4B2A0426E
:10122000F6D8A04215D90B2D13D2494A1121C90174
:10123000501947180290F87A002806D1387801280A
:101240000FD002280DD003280BD06D1CEDB20B2D52
:10125000EED30898807FA04201D90B2DD3D309B0DB
:10126000F0BD3B4A01231019019040180090037013
:101270005319042059180870A80005268118360251
:101280008819A1008A189119438F4B87808F88870E
:1012900020460A21484307902046062148430690ED
:1012A000284648430590002628460A2148430490D2
:1012B0006E202749704340180499B5224118079BB6
:1012C000D2000391C018891880180A22FFF75EF82F
:1012D000422070431E493B2240180699059B411845
:1012E0005201C0188918801802880A8042884A80F2
:1012F000808888802D220399520100208918761C4D
:10130000F6B20872042ED3D3432102984901401843
:10131000019B827A59188A72407D48750098F97A43
:10132000C1720098B97D8175452102984901401824
:10133000019B427859184A70027B0A73407E4876B6
:1013400087E7000014EE0100114D010094EE01004A
:10135000B4E50100684B0100EA660100F5400100B8
:1013600004510100D14C0100F0B5FF218BB0FF22E8
:101370009031FC48FFF74BF8FB4DFC4CA87BA07369
:10138000607302F081F8FA48427AA87B0B2801D9F1
:101390000B20A8730020F74B471E00216E463154E6
:1013A0000E264643F618FF2120363174ED49091800
:1013B000FF316131401C0F70C0B2CF720B28ECD3EB
:1013C000D01C80076E21800F4A430590E949002018
:1013D00051188C460A22614642438F180B21C901DD
:1013E0007A18014606235943E24B568DC918152336
:1013F0009B01CB181E85928D5A852D225201BA1859
:10140000137A2B2252018918401CC0B28B710B2811
:10141000E0D3D949D94B0A91198900208039049128
:1014200009B20991D6494A7A0E7A110231434A0823
:1014300059896E23891A039109B208910599594374
:10144000CC4BC91807910A2361464343CE182D217E
:10145000490106967618367A0596002E3FD0079EEB
:10146000C44FF6187118097A002935D00A99AB7B58
:1014700089798B4230D845213B1849015918097B9D
:10148000012929D00B23DB010699F618CF18798D95
:10149000738DB68DCB1A59180BB2B98D8E1B71187E
:1014A00009B2802B01DA802303E0049E9E4200DA19
:1014B000099B8A4201DD114603E0039E8E4200DA59
:1014C0000899062706467E43AA4FF7191526B60146
:1014D000BE19338571850DE0059901290AD00626CC
:1014E00003467343A34EA7499E1915239B01F31886
:1014F00019855985401CC0B20B28A4D3002630465C
:101500000396062148439B4940182B214901411865
:101510008979002952D0A97B0027002946D9314674
:1015200014225143984A15238918089131461622EE
:1015300051438C4A9B018918079111468919FF3143
:101540006131069171B2C0180591049004998948DF
:101550000A8D0E2179430918488E898E101A049A33
:1015600000B2528D511A09B200F0F2FC41420798C4
:101570007A008018018008997A4B897C002901D073
:10158000824901800022825EFF20C043824208DB44
:10159000D819FF306130059A02700699CF72012187
:1015A00081757F1CA87BFFB2B842CFD86D490398E4
:1015B0008919FF318131761C4870F6B20398401CBE
:1015C000C0B203900B289CD370B220730D216156DA
:1015D0008446B1421BDA0021002814DD607BB04252
:1015E0000BD216225F4B4A43D2184700D719401C32
:1015F000664BC0B23B80B042F7D30C20491C20564A
:10160000C9B28842EADC607BA073604660730C203C
:1016100020560022002834DD524953005B185C48F4
:10162000E2331874000A58740D26A6570020002EC5
:1016300021DD162656437118039141008C46039E06
:1016400000216644715E5E7C1F7C360636143E4384
:10165000B14202DD1974090A5974424F6646F619FF
:10166000FF3600210136317271720D21401C615626
:10167000C0B28142E1DC0C20521C2056D2B2904212
:10168000CADC384807F06CFD0E23E3560020002B1F
:1016900015DD404A374C6F4632490E18FF21613143
:1016A0007156002907DB0E2646433619895C203621
:1016B000317401267E54401CC0B28342ECDCA87B0E
:1016C00002F0C0FE84460022A87B1346002828D9D9
:1016D0000E20194641432748091808462030047C4B
:1016E000FF2C19D136240C5F644515DBAF7B114606
:1016F0008F4211D96C46521C645CD2B2002C07D1C7
:1017000014260C467443204EA419A47C002C45D00A
:10171000491CC9B28F42EDD85B1CA87BDBB2984252
:10172000D6D8002400062646000E16D0114F0E20F3
:101730006043C1193020405CFF2809D00E2070435F
:10174000C019761CF6B20E22CC303031FEF71EFEE8
:10175000641CA87BE4B2A042E9D80F4886720BB0A3
:10176000F0BD0000D85B0100D4E50100585D010028
:1017700014EE0100B4E5010014E701006E660100FB
:10178000114D0100FFFF0000EA66010001C0FFFFEC
:101790000180FFFF595D010074E601000174012022
:1017A0006C466054B8E70000F0B585B0002069468B
:1017B00008813F48C17D827D09060914847E11435A
:1017C0000391417E027E0D023A491543497B00296F
:1017D00010D03949897B00290CD0384904244A7F2C
:1017E0000B7F110609141943039135494A7F097F7C
:1017F00015020D432E48407D002856D03149002067
:10180000CA7B03463049314E8978904201DB00297A
:1018100003D14700BF193F8AFB18401C0828F4DB9E
:101820003279022001469140294A12785207520F1C
:10183000904001221203101A5843FEF722FE1C4961
:101840008871000AC87106F01BFE01202149224E52
:1018500008700027FF20F53007F060F804F05AF90F
:1018600004F094F99A20F0720CF038FE10F05AFB54
:10187000AA20F07204F026F904F04AF90CF05CFE9C
:101880006846078102AB2A4601970094002003991D
:1018900001F0CAF96846641E0089E4B2002801D04C
:1018A000002CD7D10D490120487205B0F0BD0000D1
:1018B000334C0100514D0100714D0100B24D01004A
:1018C000B44D010080510300D64A010000560300C8
:1018D000205003002851010060510300004C01001A
:1018E000F8B51B4DFF202C7D013005F051FC009018
:1018F000E87B00282BD006F0D1FF164E0120164FB2
:101900003070FF20F53007F009F807F05DFD07F0B3
:1019100097FD9A20F8720CF0E1FD10F003FBAA206D
:10192000F87207F029FD07F04DFD00203070687C4B
:10193000297C00060214E87C0A43AB7C01021943AF
:10194000009801F03FFA641E2406240ED9D1F8BD98
:10195000334C01002851010060510300F8B51A4DC5
:101960000324687A00282DD0FF20013005F010FCF8
:10197000164F0090B878002824D10CF0DDFD3526F4
:1019800036030CF0ABFD10F027FA0CF0D5FDB17C5E
:101990000F48027B102090408143B174E87AA97A05
:1019A00000060214687B0A432B7B0102194300984E
:1019B00001F008FA641E2406240EE2D10120B8705A
:1019C0000CF08CFDF8BD0000334C0100904E01007E
:1019D000684B010030BF704706484078002808D0A7
:1019E00010B5552109010448FEF736FD00F006F850
:1019F00010BD7047F14C0100A0900100F0B5274CDC
:101A000087B0207926498006800E264E00910190ED
:101A1000B17EF07E244B1422FEF75CFFF07E0125A0
:101A20000590012829DBA078E67886461D48877E48
:101A30000122012F1DDB1D49284628235843411848
:101A40008C461B494118634650001B5E73450BDBF7
:101A50000C5AA41B24B20C529C4201DD0B5205E02F
:101A6000002B03DB002C01DA00230B52521C97429F
:101A7000E9DA05986D1CA842DADA0020019002909C
:101A8000049007480090084B06480393817E01228A
:101A90000598FEF747FF07B0F0BD0000F14C0100CC
:101AA000CA101410AD480100EA0A1410C08A0100DF
:101AB000A09001003322120351680C480B0A0170F8
:101AC00043700B0C8370090EC170116901710B0A10
:101AD00043710B0C8371090EC171916901720A0A7D
:101AE00042720A0C8272090EC1727047BC5A010020
:101AF000F0B52B482B49807D2B4A002803D00020CD
:101B000010701E2003E0087B002802D0401E0873DE
:101B1000F0BD012010702548817F427F08022249D4
:101B200010434870000A88702048C17F1E48C17069
:101B3000090A01711E48017C1E480029844628D0EC
:101B40001D482427417900790906091401431B48DF
:101B50000E25427B007B12061414164A0443D75FFD
:101B6000555F1748A14201DD01248471154C667C44
:101B7000247C360636142643B14205DA002D03DAFA
:101B8000002F01DA01228271091D092901D20021E9
:101B900081716046007A0028BAD100F015F8F0BDD6
:101BA00074E901000451010063510100684B010018
:101BB000F14D010074EE0100A94B0100134E01002C
:101BC00024510100114E0100F0B5504950480A78E7
:101BD00084B0002A0DD04F4A557B0A465379002D18
:101BE00001D0002B05D049498979002905D1002D64
:101BF00003D00021418004B0F0BD4288521C96B24F
:101C0000424A46809478527827021743424AB742A4
:101C10009479424A06D9002C04D1567D002E01D178
:101C2000002DE8D0394D002901D0491EA9710021AD
:101C300041803B48002C07D1517D002904D1002B65
:101C400002D1A979002906D0417802780802104310
:101C5000400003B204E04178007809060B14034306
:101C6000012030498646C87E03900128C3D35842DC
:101C700002902D48807884462C48877B887E00908F
:101C800000980124012838D32A497046282250435D
:101C9000411801912849264D42184119019D6000C3
:101CA0002D5E9D420BDD0D5AED180D526546002D3F
:101CB0001ED0022F1CD1155AED18155218E0029EA5
:101CC000B5420ADA0D5AED1A0D526546002D0FD0B5
:101CD000022F0DD1155AED1A09E00E5A76190E523F
:101CE0006646002E04D0022F02D1165A75191552DD
:101CF000641C0098E4B2A042D0D27046401CC0B22E
:101D0000864603987045BBD204B0F0BD6351010014
:101D100044510100514D010024510100884B010044
:101D200066510100AD480100F14D0100684B010012
:101D30000080010020A60100608501000448007FAA
:101D4000002803D010B500F005F810BD7047000062
:101D5000684B0100F0B514480025C37F1348C07FCD
:101D6000864600281FDD584284461149A8004718BE
:101D700010490C2000226843411850003C5E9C42F0
:101D800003DD0C5AE4180C5207E0644502DA0C5AE1
:101D9000E41A01E00E5A34190C52521C022AECDBF0
:101DA0006D1CAE45E1DCF0BD684B0100AD480100A3
:101DB00026540100A6540100F0B411270B25002081
:101DC000FF01104CED01052636022118CA191278C0
:101DD000012A11D1432252018918897A6E22514376
:101DE0000A220919424389184A1981000919538D99
:101DF00089194B87928D8A87401CC0B20B28E4D387
:101E0000F0BC7047B4E501004A4900204885888548
:101E100008654948807900287ED0F0B447490122FE
:101E2000C87E474D8446012846D38E7E0120012E70
:101E30001AD3114628235943424BCF183D4B41003A
:101E4000795E1E2903DB598D491C598508E01E2443
:101E5000E14205DC9C8D641C9C851C6D091919658B
:101E6000401CC0B28642EAD2521CD2B29445DDD2A6
:101E7000304B588D462802D3998D462916D8324AC0
:101E80002421515E1E2809D39A8D642A0ED8462833
:101E900004D32824E14201DA142A07D864280BD39A
:101EA0001420C14208DA988D142805D901209870B1
:101EB00014202870F0BC70472878002807D0401EF6
:101EC00028701C488078002804D0F0BC704719495D
:101ED000002088701C49174C0C220E238A5ECB5EB2
:101EE000608D991AC82805D9914203DD0122A2709C
:101EF00014222A70FA280BD919225201934207DDC5
:101F0000FF222D32914203DD0121A170142129709D
:101F1000FF217331884200E00AE0D6D90B480088DF
:101F20000028D2D00120A07014202870F0BC704787
:101F30007047000004510100F14C0100AD48010060
:101F40002451010020A6010074EE0100AC4E0100F6
:101F500010B404460122644349430F230020D203F6
:101F60000919012902D810BC88B270474400A4188E
:101F70009C405B1E9BB2A14202D3801880B2091B19
:101F80005208F3D110BC704770B44478037824062B
:101F900024141C434B780D781B061B142B439C42C6
:101FA00001DD1D4600E02546ADB29C4200DD234622
:101FB0009CB2C3788678180600143043CB788E78AC
:101FC000190609143143884201DD0B4600E003463F
:101FD0009BB2884200DC084681B250781678000631
:101FE00000143043A8420DDBA0420BDCD07892787D
:101FF000000600141043984204DB884202DC70BCE7
:102000000120704770BC00207047F0B585B0049087
:102010000291001D0090091D0191049A029810F090
:1020200055FA0746009A0199029810F04FFA0646B1
:10203000029A0099049810F049FA0546019A00990D
:10204000049810F043FA0446002F02DD002E04DB52
:1020500016E0002F0BDA002E12DD002D02DD002C21
:1020600029DB1FE0002D14DA002C24DC1AE0002FFD
:1020700006D1049A01990298FFF786FF00281AD129
:10208000002E06D1009A01990298FFF77DFF0028E3
:1020900011D1002D06D1029A00990498FFF774FF20
:1020A000002808D1002C09D1019A00990498FFF763
:1020B0006BFF002802D0012005B0F0BD002005B064
:1020C000F0BD00000A48142101701B2141701D233E
:1020D00083701F21C1701C2202711E224271817106
:1020E000C3710172232242728372C17202737047FC
:1020F00061660100010E4A008918044A8918020C21
:102100004A70020A8A70C870704700006166010058
:10211000F0B5FA489FB0417A00200B90F8480E9035
:10212000807D00287ED96E204143F64808181D9016
:10213000F54809900B980E21F24A484381180F2068
:1021400080010D182C7E00200D900C90112011198B
:10215000C001081801900078012804D002283CD062
:1021600003283AD0E8E22A2027464743E7482A21B5
:102170003E183046FEF770F90620E54960434118E5
:10218000002008804880E348DE4A01890B988000DF
:10219000821800900520000210180290C0890022C9
:1021A00002F098F97080DB48012241890298008A88
:1021B00002F090F9B080D548D449C05D401CC855A4
:1021C000688BF082A88B3083D34900986A8B0A52BF
:1021D0000098AA8B401842804FE00A211D98614365
:1021E00041182D2040010818007A022845D02046C9
:1021F0002A214843C54F0090C6197078002809D09D
:102200003046FEF729F90620C149604341180020F5
:10221000088048800098385C052802D20099401C4C
:10222000785400E092E20420810071188B1E8A1C11
:102230001B884B800B888B80498A9182401E518A73
:102240000006D182000EEFD1B24801890B988200BE
:10225000AC481218052000021718F889002202F075
:1022600039F97080AB4801224189388A02F032F98D
:10227000B080698BF182A98B3183019800780228A4
:102280007DD10A211D98614341182D204001081875
:10229000007A022873D10B989F4A8000698B135AE9
:1022A000C91A00D549428018AB8B4088181A00D54E
:1022B00040424943404309180120000481425ED353
:1022C00020462A21484391491C90085C02287DD36E
:1022D0008E481C9908180A904078002876D10A9EEA
:1022E00005270C3608971E2231466846FEF74EF841
:1022F0002A220FA80A99FEF749F81AA8119B109AEA
:102300000F9904F08DFE1E22314668460897FEF7AD
:102310003DF82A220FA80A99FEF738F81BA8119B4E
:10232000109A0F9904F0ECFF10A82826865F30461B
:102330000A30142874D910A92C20085E802828DAC5
:1023400009981622C17D00910A98825E0120801AA8
:10235000FEF7A5F80146062027466D4A4743D153AC
:102360000221B8180171D35F890318460B40314030
:102370008B4255D10099002800DA404200E0DBE1B1
:10238000FEF78DF80146301E00DA704281422EDBE6
:1023900046E0604909890A46803A90422EDD0A9853
:1023A0001622825E09988A1AC17D10460091FEF7B6
:1023B00076F8014606202746554A4743D153022165
:1023C000B8180171D35F8903184600E005E10B409E
:1023D00031408B4224D10099002800DA4042FEF7B8
:1023E0005EF80146301E00DA7042814218DA30464B
:1023F0000099FEF754F84649C85311E006212746D4
:102400004F4343490120791808710E98807D0128B7
:102410003CD00998C17D3046FEF741F83C49C8538D
:1024200010A82A27C75F38460A30142865D910A893
:102430002E21415E80292CDA062021464143344872
:1024400002230918009101914B7109981822C17D4E
:102450000A980291825E0120801AFEF720F800B2ED
:102460000199034648800121C9030B4039408B4242
:1024700068D10299002800DA4042FEF710F80146C0
:10248000381E00DA7842814231DB5BE02048C653D7
:10249000C6E7204840890246803A91423EDD062147
:1024A00022464A431A4902235118009101914B7167
:1024B0000A9918228A5E0999801AC97D0291FDF74E
:1024C000EEFF00B20199034648800121C9030B4089
:1024D00039408B4236D10299002800DA4042FDF79C
:1024E000DEFF0146381E00DA784281422ADA384699
:1024F0000299FDF7D4FF0099488023E014EE010013
:1025000074E90100B4E50100114D0100D45E010041
:10251000A26001006E660100E46001000620224610
:1025200042438B4801211018009041710E98807D24
:10253000012812D00998C17D3846FDF7B0FF014649
:102540000098418020460621484381490190401867
:1025500000900079022803D006E000984780F1E758
:10256000009A5279012A04D0009A5279022A1ED088
:1025700033E00198002E10D00A5E009B0220185E06
:102580003146002A00DA52425043002900DA7142F3
:10259000FDF785FF009948801FE0085E009A022140
:1025A000515E002800DA40424143518015E0012885
:1025B00013D1002F28D00E4600990222019B8A5E7B
:1025C000F05E3946002A00DA52425043002900DA10
:1025D0007942FDF764FF019970525E481C995C4B8B
:1025E000081803904178491CCAB24270089216221A
:1025F000825E062044430292185F00901018012862
:102600000EDC0026012012E0009A0220105E019AE2
:1026100000288A5E00DA4042424301980A52DCE711
:102620004D490A89904204DB08268E5F02200D90F6
:1026300000E006B203981821415EE01802270191DC
:102640000490C75FC819012802DC0024012006E0BD
:1026500041494A89904204DB0A240C5F02200C9015
:1026600000E004B2009800281BD00D98012802D089
:1026700002280BD015E002980121081A784300992E
:10268000FDF70DFF0199401804B20AE032480189B4
:102690000298081A78430099FDF701FF0199401844
:1026A00004B2002F1DD00C98012802D002280CD0B3
:1026B00017E001980121081A009948433946FDF7AF
:1026C000EEFE0299401806B20BE0234841890198BA
:1026D000081A009948433946FDF7E1FE029940186F
:1026E00006B2002E02DA0020688306E01A4800894C
:1026F000B04201DA688300E06E83002C02DA002029
:10270000A88306E014484089A04201DAA88300E0CB
:10271000AC830398698BC1820398A98B01830999C3
:102720000898C97D884207D12A210398FDF794FEB5
:1027300004980021018041800B98401CC0B20B908E
:102740000E98817D0B98814200D9F3E41FB0F0BD53
:10275000A2600100D45E01006E660100F8B5092494
:10276000E40121466C48FDF777FE21466B48FDF7F2
:1027700073FE5524240121466948FDF76DFE694822
:102780000078002817D021466748FDF765FE2146EE
:102790006648FDF761FE21466548FDF75DFE21466E
:1027A0006448FDF759FE21466348FDF755FE214672
:1027B0006248FDF751FE62488078002807D06148E2
:1027C000807B022803D121465F48FDF745FE214664
:1027D0005E48FDF741FE5521C9005D48FDF73CFE0E
:1027E0005C48807B00281CD000205B4B5B4A5C4D22
:1027F0000324C617B60F3618B608B6008108861B24
:102800008900A61B8919C9B25E5C47193E701F2654
:10281000711A515C711A534E86193174401C20286C
:10282000E7DB51480024C07E00284DD94F48504D69
:102830000090504E7078022818D00098407B0028F5
:1028400029D04D4823460619D920825D12204343E2
:102850004A48E97D18180746FDF7D9FDE87DE036BE
:10286000C019727E297EFDF7D2FD27E0707B2346DA
:102870004206122043434148520E1818E97D07468C
:10288000FDF7C5FD717BE87D4A06C019520E297E11
:10289000FDF7BDFD12E01220234643433748384E72
:1028A0001818325DE97D0746FDF7B1FD3119E87D65
:1028B00020310A78C019297EFDF7A9FD2A48641C39
:1028C000C07EE4B2A042B4D82A48417805222B4801
:1028D000D2018318A52292008518022911D0294C13
:1028E0001421E27E1846FDF792FD227F142128462E
:1028F000FDF78DFD1C48C07E41002348FDF7ACFD6F
:10290000F8BD712214211846FDF781FD042214211F
:102910002846FDF77CFDEDE70000020000100200F4
:10292000008001003D4E0100609B0100C0A001003D
:1029300090AB0100F0B0010004CE010054D30100BF
:10294000F14D0100684B010060850100C08A010063
:1029500064E00100A84B0100964A0100B64A01005C
:10296000A0530300C0530300AD480100514D0100C6
:10297000D14C0100694E0100B14C01000020020061
:10298000D6480100334C010040220200F8B514493A
:102990000A69FF20013082430A6104F0F9FB114EFD
:1029A0000021F27E002A1ADD0F4F06234B43DC196B
:1029B0001222E31D4A43F93312181D7815705D7811
:1029C00055709B789370E31DFC331C78D4735C784E
:1029D00014749B785374F27E491C8A42E5DCF8BD7E
:1029E00080000300AD480100D648010070B51C4DC1
:1029F0000024E8690078002831D91A4EE869017886
:102A0000491EA14210D11A2161430B18D988C288EE
:102A1000801D9B1D891A00D549428AB25988408879
:102A2000081A10D540420EE01A21614309188B1D87
:102A3000C8880A8C2031801A00D5404282B258885A
:102A40004988401AEED401B210B2FFF781FA610052
:102A50007052E869641C0078E4B2A042CED870BD20
:102A60008851010036720100F8B502880B88498848
:102A70004088D41A0D1A002629B220B201F0A6F817
:102A80000146002C00DA64421F4B9879844206DA32
:102A9000002D00DA6D42854201DA3046F8BD162974
:102AA0000BD9432901D8012008E0702901D803205F
:102AB00004E09D2901D8022000E00420134D6A782B
:102AC000FF2A01D16870A9706C788442E6D0AA7898
:102AD000B4262D2906D2872A04D9B61A72180BD526
:102AE000524209E02D2A05D2872903D9761AB21855
:102AF00002D5F5E78A1AF3D4DB79D2B2934201DD2D
:102B00002046F8BDA970F8BDF840010088510100C9
:102B1000F8B50024002907D01B494A7A0B7A110224
:102B2000194349040D0C01E001256D0217496F0896
:102B30004E7987420AD2002E07D01549C01B8978EA
:102B400048433146FDF7ABFC84B23846AF088742B4
:102B50000BD2002E08D00E49C01B4978484331469D
:102B6000FDF79DFC001984B23846002E07D00849B5
:102B70000A7831465043FDF784FC001984B2AC4218
:102B800000D92C462046F8BD114D0100245101000A
:102B90004C51010000B5184885B0007B002828D0B2
:102BA000032009210007490443181448C17B144835
:102BB000002906D013490978002901D02B214901A9
:102BC00008180022009010490192029204920F48C6
:102BD0000391817EC07E0122FDF7A4FE55221201E1
:102BE0000B490C48FDF7D2FB01200CF039FA05B077
:102BF00000BD0220D5E70000684B0100884B0100B2
:102C00002A00141005510100EA0A1410AD48010011
:102C1000C08A010020A6010010B5044600F07AFA2F
:102C20002080012010BD0000FFB589B004460820B7
:102C3000139D04F0ADFA06465B480890200A002771
:102C40000590E0B207970690002D00D0574E5848E7
:102C5000007B00282DD003200921000749044318D8
:102C60000A9C554A0021029452480392534C019108
:102C700004910090A17EE07E0122FDF753FE00202A
:102C80000090E07E00286FD94C480024807E002808
:102C900078D90098242148430899009D4018029053
:102CA000122045432146009804F02EFC002863D1F1
:102CB00001E00220D0E702986100405E0190002808
:102CC00000DA40420B99884256DD0798401C80B2DA
:102CD0000790002903D00198FDF7E1FB07B2384BBC
:102CE0005879032842D3129988421BD10A99019836
:102CF0009A794018D979090211430B9A8A1A90429D
:102D000034DD884225DD31E0069A059900B2914212
:102D100030D0884202DC114690422BDA084629194D
:102D2000705429E0401E884220D103213846FDF727
:102D3000B6FB01460B9841432148C27983791002C2
:102D40001843421A0A9B0199C9188A420EDA814235
:102D50000CDC05213846FDF7A2FB1949097A4843E6
:102D60002919715C4018CFE716E00BE02819305C98
:102D7000C019C9E7291970541048641C807EE4B258
:102D8000A0428FD80098401CC0B200900B48C17E72
:102D90000098814200D977E70C98002802D00C995E
:102DA000079808800DB0F0BD60850100003002007A
:102DB000684B0100000012F060051210AD480100E0
:102DC000334C0100F7B5064684B00020314C019029
:102DD000E078052805D0032803D0042801D0012875
:102DE00056D112200090012004F0D2F903902A4815
:102DF0000027C17E00294BD927480024807E002867
:102E000040D938462421484303993D464018029052
:102E1000009845431F48C07805280CD003280AD0E5
:102E2000032C0FD31C48807EC01EA0420ADD002068
:102E30003119685420E0032C04D31748807EC01E4B
:102E4000A042F4DC0598002809D002986100415E98
:102E50000698401A0599FDF722FB00B2019031193E
:102E60006A5C0198101A00B27F2801DD7F2002E021
:102E7000002800DA002068540748641C807EE4B211
:102E8000A042C7D804487F1CC07EFFB2B842B3D866
:102E900007B0F0BD684B0100AD480100F7B53D49F2
:102EA00084B0CB7E897E9C468E46162148433A49A3
:102EB00041180920800109188879CE790D794F7958
:102EC0008B78C978904201D8012006E01C1A032CA7
:102ED00001DBD81E00E0801AC0B26446A41AB442D6
:102EE00001DC644606E0F41A032C01DBDB1C00E085
:102EF000B318DCB2954201D8012506E04B1B032B29
:102F000001DBCB1E00E0AB1ADDB273469B1ABB425D
:102F100001DC714606E07B1A032B01DBC91C00E0D3
:102F2000B918C9B21422424352192B2352009B01F3
:102F3000D2189204194B920CD31801900022491B0D
:102F4000201A491C0292401CC9B20095C0B2072247
:102F5000FDF798FC124A906951681568C201114842
:102F6000437A047A1802204346084E43002D0ED0BF
:102F700029461046FDF785FA05990E2251430A4A63
:102F80008C18608629463046FDF77BFAA08607B08C
:102F9000F0BD0000AD480100C6670100000014103C
:102FA00080600300114D0100B4E50100F0B597B059
:102FB000544900201391887353491291088300905B
:102FC000019002900390049005900690079008905D
:102FD00009900A900B900C904C4A0D900E900F9017
:102FE00010901190117800290FD909270CABBF015F
:102FF000162444431854A518EC1946002589401C92
:1030000001ACC0B2A5538142F2D81491490801AC79
:103010000CAB002928DD14980A46814221DA4800C9
:1030200086465000205E8446985C1590501A06E053
:103030002F1975467E531E5C1F187E54401A0028B7
:1030400003DB4500665F6645F2DB460065463619E0
:103050007746F5531818159D45541498521C824212
:10306000DFDB49100029D6DC01201490274800241A
:103070000178002943D90927BF0106460CAD285D18
:103080001621034648438119C8190089002831D008
:103090001846149A0099FFF701FF0E20224642437A
:1030A0001B48FF2112181046203001742B5D162199
:1030B00059438919C9190D89D5860D8A15878376D3
:1030C0008A78C276C97801771298018B16206043FE
:1030D0008019C019008A814201D21299088313987D
:1030E0001399807B401C88730098401CC0B20090EC
:1030F0000B2804D2641C3078E4B2A042BED817B0CA
:10310000F0BD0000D4E5010074EE0100C6670100C7
:10311000B4E50100F0B585B0284D012004F038F881
:103120005521039009012648FDF796F9002025490D
:103130000190C87E009000283DDD8A7ED01E0021CF
:10314000002A31DD019B24246343039C1C4E1B1980
:103150009E46019B0C2463431B4C1F19019B282492
:1031600063439B199C464B0074460293E65AFB5AF4
:10317000F31A1CB2029B63445C850EE00329F2DB68
:1031800088420EDC8E1A760074464B00BE19E45A53
:10319000B6896344A61B34B25C852346AC4200DD8D
:1031A0001D46491C8A42E9DC0199491C0191019B99
:1031B00000999942C3DC284605B0F0BD78ECFFFFCA
:1031C000C08A0100AD480100A6540100FFB5914C32
:1031D00081B0607A15460E46002822D08E490878C4
:1031E000B0421ED1C878A8421BD1A07A002818D0BE
:1031F0008A480090427A037A1002184311D001984D
:10320000874F002804D087484078002809D002E082
:10321000387F002805D1A07A012816D0A07A02288C
:1032200013D005B0F0BD0EF0DBFE7B480178B14253
:103230007DD1C078A8427AD1A07A002877D00098B2
:10324000417A027A0802104371D0734880780028CE
:1032500002D0A07A0128E6D0734840780028E2D155
:1032600072480078002803D1714800780028DAD12C
:103270007048C07D002801D008F052FA2A46314635
:10328000049B019808F0C0F8387F00280AD1352344
:103290001B03987C60490A7B1021914088439874F5
:1032A00001203877A17A6448012926D0A17A022921
:1032B000B7D162498171090AC1715B480127077260
:1032C00008F0C8FF002832D05348564A8770019949
:1032D000117007463878B04229D1F878A84226D133
:1032E000A07A002823D00098417A027A080210437D
:1032F0001DD0A07A02281AD17DE051498171090AB6
:10330000C17149480124047208F0A4FF00287AD052
:10331000414844498470019808700198494D00283B
:103320003ED019267603B069002806D000E06AE096
:103330000EF056FEB0690028F8D16C7001200BF039
:10334000EBFC787A397A00020843810040180024A7
:103350006421FDF796F8002813DD022001F02AFA17
:10336000687800280DD00EF03BFE787A397A00029A
:103370000843810040186421641CFDF782F8A042D4
:10338000EBDC00200BF0C8FC274C207A002800D191
:1033900047E70EF025FE207A0028FAD105B0F0BDEF
:1033A0006C7001200BF0B8FC787A397A000208437F
:1033B0008100401800246421FDF763F8002813DD24
:1033C000022001F0F7F9687800280DD00EF008FE11
:1033D000787A397A00020843810040186421641C1D
:1033E000FDF74FF8A042EBDC00200BF095FC02202B
:1033F00001F0FAF9C8E70EF0F3FDB878012800D122
:1034000068E705B0F0BD04490020887006490872DD
:1034100005B0F0BDA84B0100684B0100AB4B0100AB
:10342000884B01003841010018530100244001007D
:1034300025400100F14D01008441010023410000BD
:10344000034100001C40010010B50EF07DFA06F0AB
:103450000DF810BD0A490A7810464A781202104346
:103460008A78C97812041043090608430549020AFC
:1034700008704A70020C8A70000EC8707047000015
:10348000804E01008251010010B50EF0A9FE0348E4
:103490004078002801D104F0FDF910BDB4510100BD
:1034A00008480122807B0849002809D0032807D05A
:1034B0000020C87105484078002800D0CA717047C4
:1034C000CA71F7E7684B0100614C0100784E0100BA
:1034D000F8B5334E0024F0610078FF25052803D0AD
:1034E0000120F0710020F8BDFFF780FAF079002884
:1034F00019D00020F071FF200BF006FD294D2A4F56
:103500006000295A395220461A214843F169274A56
:10351000411880181A22891DFCF738FF641CE4B298
:10352000052CEDD338E004F049F8214F042802D0EF
:10353000052818D10BE004200BF0E6FC1D48B97FEC
:10354000007988420FD3F069007830300AE0052016
:103550000BF0DAFC1748F97F4079884203D3F06911
:1035600000784030C5B2FF2D16D00F4E0F4F0D49D9
:103570006000095A315220461A21484308491A224C
:10358000C9694118C019891DFCF700FF641CE4B229
:10359000052CECD3452D01D00020F8BD4020F8BD0E
:1035A000885101003672010040720100CA750100A5
:1035B0000E410100AD510100F0B5002089B0FB4A79
:1035C000FB4E0190941D054630711A214143891824
:1035D000C97C002904D01A2148438418A41D03E0A3
:1035E000401CC0B20B28F0D3617BF248069004293E
:1035F0000CD0EE480078002870D0F078EE4F00280C
:103600006DD001286CD002286BD0F8E104F048FCA2
:10361000EA49E7488A88C089824273D8E44800783A
:10362000002870D1E64805900020044604900290DE
:103630000090E44807900EF0D3FC0498002806D0D0
:103640006006400E03D08021081A001984B2059844
:10365000021915460020115C002905D0FF2903D06E
:10366000401CC0B28028F6D3039000286CD0059887
:10367000005DF1282AD0F22834D00398D24F401CA4
:10368000C3B2002001467A5C002A05D0FF2A03D08D
:10369000491CC9B28029F6D38C46994269D80022C8
:1036A00000290FD9295C0023BE5C0F2921D08E424E
:1036B00000D10123401CC0B2002B5AD0521CD2B200
:1036C0006245EFD3285C00281ED052E06878009055
:1036D000B7489178241D0181A4B2ACE73DE140E1F7
:1036E00051E183E1A41C0498A4B20028A3D00020D7
:1036F0002BE0401CC0B2295C8E4200D101230F296F
:10370000F7D1D7E723E11CE10098162805D012284D
:1037100003D00290002817D12BE0AC4B07991888F2
:103720000A88801A00D5404282B258884988401AD7
:1037300000D5404201B210B2FEF70AFC9F498989C8
:10374000814213D91320029002989C4E00283278AF
:1037500007D00107090F0123491E8B40134200D0F7
:103760000020934C0028207108D06DE00098029052
:10377000D0E703982018401C84B25CE7207800282A
:103780006FD1E07800286CD07178002509062FD41D
:103790008F490978002903D1022801D9E57027E073
:1037A000727CA1898A4225D8728A8A4222D3012852
:1037B00002D0032803D01BE00220E07018E0854A05
:1037C000854F50887988401A01B210883A88801A4B
:1037D00000B2FEF7BDFB317D884202D2502020713D
:1037E00001E0012060710020E0702079502806D0AF
:1037F000257136E00328D1D101206071CEE7012088
:103800002070B088E0817348704903880B8042883B
:1038100072484A804383054682832A8BC2833A8852
:103820008A817B886B48CB81042545736B48C284B1
:1038300001460385898C4185B57201F0FFF90028A6
:103840000DD0207900280CD0C0B2502819D001F03A
:10385000F7F9002803D02079002802D011E00020D9
:1038600020715F490A7810464A78120210438A781C
:10387000C9781204104309060843000201D57F20CD
:103880002071B07A374603467F280ED24F4D06216D
:1038900041434A190699401C8E891680CE8956806C
:1038A000098AC0B291807F28F1D3207900283AD0CC
:1038B000502838D0FF206070012B02D800200190E2
:1038C0001FE0424E002506216943705A8919CA88B3
:1038D000801A4A88098900B2511A09B2002900DA0F
:1038E000494209B2002800DA404200B2FEF730FB3C
:1038F00001996D1C401880B20190B87AEDB2A842CF
:10390000E1D220797F2804D021890198884208D902
:1039100009E03448817E407E0902014301988142DA
:1039200001D20020207130480078002809D0207989
:10393000002806D16078FF2803D0FF206070FA20AD
:1039400020711B48C178002901D10121017018485C
:1039500000218171007909B0F0BD0020B07109B07B
:10396000F0BD707900284AD0012948D1B8893228A1
:1039700045D20120F070002070811A22214615489E
:10398000FCF704FD3BE01348628841880088891AEF
:10399000228809B2801A00B2FEF7DAFA0146074817
:1039A000007D81422BD90020F07028E0E651010013
:1039B0008851010038750100066A0100F8400100D5
:1039C000A6280100447501004A7501004A720100F1
:1039D000A85101004C7601006676010036720100A4
:1039E000054C0100C04B0100F74001000320F070BE
:1039F0001A2221466B48FCF7C9FC002070716A4806
:103A0000B9894378027818021043814202D8B0790C
:103A1000002804D00020F0700120B071BFE063489E
:103A20000078012801D90020F07061480078002852
:103A300022D05F4F012078711A205E49002668432A
:103A4000BE8140183E701A222146FCF79FFCFF20E1
:103A5000787059485949465500200E54401CC0B250
:103A60008028FAD3564957488E722288028062888D
:103A700042800120887235E04D49C889002831D044
:103A8000002088812031485D7F2804D24B4B0922D9
:103A90001A54401C48554A4A907A7F2817D206216A
:103AA0004143401C9072474B0698C91886890E8086
:103AB000C6894E80008A8880907A0627014678431E
:103AC000C71866887E8026881E52491C91721A206B
:103AD0003849684340181A222146FCF757FC3449FC
:103AE0000920487032490020C8812B461A20314FE6
:103AF00043432188F85A081A01D4014600E04142A4
:103B00002F4A127A914209DAD91966884988711ABE
:103B100000D5494296009619B14240DBDE19618812
:103B20007388C91A00D54942254F914206DA002808
:103B300000DA404291005118884230DB314620467D
:103B4000FEF792FF1A49002808710FD04A78824286
:103B500003D1194A525D002A08D1174B4870595DAC
:103B6000164A7F29505401D2491C59551A22214620
:103B70003046FCF70BFCB87A7F2809D20621114B9E
:103B80004143CE186588758025885D52401CB87207
:103B9000042060730C486188818721884187002058
:103BA00009B0F0BD66760100E34B0100E65101006B
:103BB00088510100CA750100A85101004A75010031
:103BC000F84001004A7201000A75010070B505460F
:103BD00000200C46002D23D0084664214843294686
:103BE000FCF75DFC002800DA404202461049002044
:103BF0004300CB5A934203DC401CC0B22D28F7D3BC
:103C0000002D04DD002C07DCB421081A06E0002C8E
:103C100003DD5A21081AC0B270BD5A30C0B270BD5F
:103C2000002C01DD2D2070BD0029FCDA872070BD3D
:103C30004C280100F8B5E1213948FCF70FFC394860
:103C40000EF0B1FA3848002646668666C6660667F4
:103C5000364D4667364C2E700F2060766E703548B4
:103C6000AE70EE7001460A78304610434A78334F02
:103C7000120210438A78C9781204104309060843D7
:103C80002D49C873000A0874B87B0B46D872F87BBC
:103C900018730120A0762A49087100224A718A719E
:103CA000CA71A97B01291DD002291BD02873787BFA
:103CB0009873387B587323486E74417B027B0802EB
:103CC00021491043C8722148C67301F097FEBB20FA
:103CD000000301681E4A914206D1007C6871FF28EA
:103CE00002D002E02E73E2E76E7109F0BDFD01F033
:103CF00095FE2E712E76A87BE0761648467004F06D
:103D0000A1FFFEF7DFF91448FEF7F4F91348FEF7B8
:103D1000F1F91348FEF7EEF91248FEF7EBF9F8BD9A
:103D20002453010050400100A4530100684B0100DE
:103D3000884B010000010000AD480100C0000000F8
:103D4000014C0100D44C01005D4E0100A84B010064
:103D50005AC3000094EE01002A1716002C16140115
:103D60002C1A16022C1A160310B5FE200324240464
:103D70006072062000F038FD0021074800F010FCBA
:103D8000C82000F031FDFF206072062000F02CFDFD
:103D90000020207210BD000004C00300F0B5414BAC
:103DA00016225043C21809208001162412186143BC
:103DB000C91808189678C1788778D27828203A4CA4
:103DC00085B070430019530001930090C05E0290CB
:103DD0002820784300194D008446435F02989E4690
:103DE000C01AFF238F33C730984257D92F4C002079
:103DF00023780493002B13DD2C4B4400E3185C78EC
:103E00000394B44202D19C78944247D0039CBC42B4
:103E100002D19B788B4241D0049B401C8342EBDC57
:103E2000BE4215D98A420199009808D941184039F3
:103E30001620085E61464A192A21515E1DE041188C
:103E400040391A20085E61464A192621515E14E065
:103E50008A420199009808D941182620085E6146D7
:103E60004A19403A1A21515E07E041182A20085E9B
:103E700061464A19403A1621515E029A824203DA9B
:103E80008E4501DD864506DC029A824206DD8E45BE
:103E900004DA8A4202DD012005B0F0BD002005B041
:103EA000F0BD0000C667010020A60100D05101004E
:103EB00010B51C481A490068FCF7E3FA1A4A1B4B74
:103EC0000021CC00145D844201D8197004E0491C23
:103ED0000629F6DB0520187003200004407C1449F5
:103EE0000128187818D0C00080184078C874187855
:103EF000C000801882788A7402794A74C2780A7481
:103F00000C4942790A73807948730B48007800287D
:103F100001D103F0BFFC10BDC0008018C079E5E7F7
:103F200040420F004C400100A7280100FC4F010057
:103F3000200003006000030070290100F0B585B087
:103F40000020694608814D49084683784278180662
:103F500000144C791043039008460279C07815028A
:103F60000543087800287DD0454A0020D67B0146CD
:103F7000444A454B9278B04201DB002A03D1470006
:103F8000FF183F8A7918401C0828F4DB3F48007866
:103F90004207520F012090400122D202101A4843DA
:103FA0001979C84035498871000AC8713848407B82
:103FB00000280DD03748C47C3748427B017B10066F
:103FC0000014084303903548417C007C0D020543F2
:103FD0000AF0B2FA0120324E0027307131480078E1
:103FE000002801D10DF0DCFF0AF078FA0DF0F4FEA4
:103FF00037710AF0A1FA684607817F2002AB2A4692
:104000000197009400020399FEF70EFE6846641EB5
:104010000089E4B2002801D0002CDFD1224FF878CB
:10402000002826D021480025C17E002921D91F481B
:104030000024807E002814D912202E4646432146B3
:10404000284603F061FA002805D1194930190A5CA5
:10405000FB78D2180A541548641C807EE4B2A04252
:10406000EDD800E007E011486D1CC07EEDB2A8421B
:10407000DDD80120387105B0F0BD0000334C0100DF
:1040800080510300D64A010000560300205003006F
:10409000514D0100714D0100744D0100724D010040
:1040A00024510100684B0100534C0100AD48010050
:1040B00000200200F3B589B0099816214843A94AA7
:1040C0000A99801809241625A40169430019891842
:1040D0000C190A230B21C35641560B2020560A22E5
:1040E000A2560D1A9C1A26462F4666436F43F619B0
:1040F0009D4FB6B23F88002F7ED00D2E7CD86D1D0F
:104100000A2D02D9A41C042C76D8984C0294282499
:104110001D466543029C2C194D00665F28241546F8
:104120006543029C2C194500645F34192402FF2664
:10413000A4122D36B44200DB34463C2C00DA3C2479
:10414000814204DA0E461D460192009003E00646C5
:1041500015460193009101980199401B0490009825
:10416000691A801B039000980691301A0790002866
:1041700000DA4042002900DA49427D4A059288422D
:1041800077DD0098864200DC3046401CC7B20098BC
:10419000864200DD3046B84269DD06984042019013
:1041A0000499B81B48430399FCF779F94A0003992D
:1041B0008A4201DD012100E0002140184019C0B20F
:1041C000122102464A4367495118C9198978099A48
:1041D000914204D10A9A914201D1FF293FD0059A18
:1041E0000E21515E7D22D200914211DC5E4A12887E
:1041F000002A05D1FF2300E090E0F533994207DC67
:104200000699002900DA0199012921DC002A1FD032
:104210002821029A41438A187900525EA2427DDB2E
:10422000421E012A00DC012228235A43029BD21895
:10423000525EA24272DB421C202A01D9202000E0FB
:10424000401C28225043C018405EA0427CDB06E0A0
:10425000A2B23946029B0EF08AF8002874D17F1C66
:104260000098FFB2864200DD3046B84298DC76E026
:10427000FFE70198854200DC2846401CC7B2019840
:10428000854200DD2846B84269DD0798404200902B
:104290000399781B48430499FCF701F902460498F6
:1042A0004900814201DD012000E000201018801942
:1042B000C1B212203A4642432A481018401880786A
:1042C000099A904204D10A9A904201D1FF283ED027
:1042D000059A0E20105E7D22D200904210DC521012
:1042E000904203DD20480088002809D00798002864
:1042F00000DA0098012820DC1B48008800281CD028
:104300002820029A784380184A00825EA2421BDB72
:104310004A1E012A00DC0122520000E014E0825E05
:10432000A24211DB4A1C202A01D9202100E0491CAD
:104330004900405EA04207DB09E0A2B23846029B7A
:104340000EF015F8002802D000200BB0F0BD7F1C45
:104350000198FFB2854200DD2846B84298DC012072
:104360000BB0F0BDC6670100AC4E010020A60100F5
:1043700074EE010010B51C4841781C48022910D089
:104380001B49CA781B49032A497B11D0052A0FD043
:10439000002921D01848417B027B080600141043F5
:1043A0001FE04178027808021043400000B218E094
:1043B00000290AD01148807B002806D01048417F90
:1043C000027F0806001410430BE00E48C27D817D79
:1043D00010060014084304E0427801781006001427
:1043E00008430AF0EDFE10BD694E0100344C010097
:1043F000684B0100514D0100744D0100714D0100E9
:10440000B24D0100334C0100F8B50C4C607EA07732
:104410000B4D0026AE70EE700AF018F86E70012792
:1044200067762878012804D10DF0DAFD2878012874
:10443000FAD0AE706F70A07F6076F8BD884B010037
:10444000684B01001E49CA78032A08D0CA7E1D495C
:10445000002A0AD0C87B897B0002084370471A48AB
:10446000417D027D080210437047012804D8487836
:10447000097800020843704702280DD0032810D0A5
:10448000042813D011480088002814D0104841781F
:104490000278080210437047C87889780002084300
:1044A000704748790979000208437047C8798979CB
:1044B000000208437047487A097A000208437047AF
:1044C000684B0100B14C0100E34B0100AC4E010010
:1044D000D14C0100F8B517000A46054607D0164929
:1044E0004B7A0C7A1902214349040C0C01E0012497
:1044F0006402111B8EB2A5420DD2002F01D0002004
:1045000000E0022002F02EFE601B80B23946FEF76A
:10451000FFFA201A0EE0B5420DD9002F01D001207C
:1045200000E0032002F01EFEA81B80B23946FEF711
:10453000EFFA801980B2F8BD114D010070B46E23FE
:104540005A43144B0A24D218604314180B20C0019C
:1045500022180E204843C5180F208001568D2818B8
:104560004683968D8683D28DC2832D225201A21856
:10457000094C89002C19157C2570CB18527C05211B
:1045800062700902428B5918CA81808B088270BC04
:1045900070470000B4E50100E303000000787047B5
:1045A00000B583B00A4600213223009101930146F1
:1045B0000123022000F002F803B000BDFFB581B076
:1045C0000B9F32261C460D46002F00DD3E4672B67C
:1045D00001201C4908750198022804D0032805D041
:1045E00004280CD014E00398287011E00020002C5F
:1045F0000EDD039A2A54401CA042FADB08E000209A
:10460000002C05DD0A9A125C2A54401CA042F9DBFA
:10461000487DC0070FD0002008750A200DF032FE3B
:10462000002F04D001DD761E36B2002ED0D162B646
:10463000002005B0F0BD03490020087562B60120D6
:1046400005B0F0BD6000030010B50CF083FB10BD99
:104650001249C878032820D001281ED008780028E5
:104660001BD110B502F034FE00220D490F2801D0F5
:104670008A7010BD8878401CC0B288700328F8D1B9
:104680008A70084852210170532141705421817071
:10469000FE2003210904087210BD7047684B010019
:1046A00000400100F07F0100024881681431816000
:1046B00070470000384001007047704770470000A5
:1046C0000F49C87803281AD0012818D00878002884
:1046D00015D110B50B4C207801280FD10A48FFF7EF
:1046E0005DFF9C280AD02078002807D000210748C9
:1046F000FFF756FF05210648FFF752FF10BD704730
:10470000684B0100214C010028C00300C0D5030004
:10471000C1D503007047704710B5134800240473D7
:104720001248017F01221143017702F00DFF104969
:10473000012809D04C730F48412101700E4A1170B5
:104740000221017711770AE0487B002807D00B4C43
:10475000207E002803D10A48FFF720FF2076782129
:104760000848FBF779FE10BD8000030020200300FD
:10477000A84B01008011030080130300E000030038
:1047800060DD0300ECDF010010B500F091FA074C8A
:104790000020607006480F21417620780F2804D150
:1047A0000DF01EFC20780F28FAD010BD684B0100D8
:1047B000884B01000023002811D930B4084D094C62
:1047C000E97C0A5D0021002A03D900BF491C9142FF
:1047D000FBD35B1C9BB28342F2D330BC7047704763
:1047E0002000030042280100F8B5002405460028F7
:1047F00013D90A4E0A4FF17C3846FBF742FE0146B8
:104800000020002903D900BF401C8842FBD30DF0D3
:10481000E7FB641CA4B2AC42EDD3F8BD200003005A
:10482000F050000030B585B0114B00245807114DF1
:1048300001940294039004940090A97EE87E0822DB
:10484000FCF770F80C480068E97EAA7E5143FBF73C
:1048500026FE00B20949020A08710A304A71152879
:1048600004D30748417D002900D0447505B030BD10
:10487000EA0A1410AD48010080600300A94B010052
:10488000884B0100F8B5022002F082FC04007DD0C4
:1048900000206087A0877548407B002861D13825BB
:1048A000655F1E2D25DD204640302021415E1E29FA
:1048B0001FDD2222825E1E2A1BDD2423C35E0F2BF6
:1048C00017DD6E18B6185A2E13DD2626865F4900AE
:1048D0007000D318081819183E20205E28184300CD
:1048E000C0185043FBF7DBFD614900B24843001498
:1048F00060873E26A65F1E2E23DD20464030242200
:10490000825E1E2A1DDD2621415E1E2919DD22231D
:10491000C35E0F2B15DDB7187F185A2F11DD202726
:10492000C75F490078009B1840181918A819430060
:10493000C0185043FBF7B3FD4D4900B24843001483
:10494000A087608F002804D13C20205E28184010EA
:104950006087A08F002804D13A20205E8019401083
:10496000A0873820205E8121490248430014208717
:104970003620205E3F4948430014E0862C20205E0C
:10498000E28D862141439202891800E06CE0891291
:10499000E1852A21615E384BEE224A4358431018C4
:1049A0008012A085772040024143081460853E2094
:1049B000205E8121490248430014E08720464030B0
:1049C0000021415E2B4A2C4D5143091401800A21DC
:1049D000415E862203894A439B02D21892120281C9
:1049E0000C22825EEE235343694359188912418198
:1049F000772149024A4311148181052000022018C1
:104A000006230421C35EE724415EA4004A226343D7
:104A10004A43D2189212C2800222825EEE23174CC1
:104A200053436143591889128180E12109024A43A5
:104A30001114418020232221C35EE724415EA4009B
:104A40004A2263434A43D218921202842422825E8D
:104A50000A4CEE2353436143591889124184E121E2
:104A600009024A4311148184F8BD0000514D010030
:104A700080D40000C0F70000790300001503000097
:104A8000F0B58BB06448039064480024007E002891
:104A900071D00020029062480A90807D00286AD977
:104AA0006048099002980E215F4A484381180F2000
:104AB000800108180090017E50181122D201089040
:104AC00080180078012836D0042834D0039A0020BA
:104AD0001578002D7AD90E22039B4243D218927882
:104AE0008A4274D1009A1A20105E05901C20105E34
:104AF00004904E484F00C65F4D48C55F0598801B27
:104B000000D5404280B207900498401B00D5404237
:104B100080B201B20690079800B2FDF719FA019031
:104B20000998417E007E090201430198814211D813
:104B3000FF24013417E0002248003E490A523E4952
:104B40000A5200994A8B39490A5200998A8B38498E
:104B50000A5254E0002903D00002FBF792FC84B211
:104B6000102C00D2102434490198CA5B824231488B
:104B700002D9C45B01E04CE0C4530198C853FF2044
:104B80000130844200D90446079B069A20462146FC
:104B90005843514300020902000C090C002C09D0B3
:104BA000002802D1022B00D90120002902D1022ABB
:104BB00000D901214523089A5B01D218127B012AF2
:104BC0000FD0059AB24203DD301802E017E011E081
:104BD000301A06B20498A84201DD681800E0681A8D
:104BE00005B200984683009885831048C653163056
:104BF000C55304E0401CC0B2854200D96BE702985F
:104C0000401CC0B202900A98817D0298814200D96E
:104C100048E70BB0F0BD000026EA0100114D01008D
:104C200074E90100124D0100B4E50100C05D01000E
:104C3000D65D0100AA5D0100945D0100012070476E
:104C40000120704710B419225203094B906B094997
:104C5000181A0872040A4C72040C8C72000EC87286
:104C600000201063536390630120106310BC7047F1
:104C7000A0860100784E0100064801210176064811
:104C8000827B002A04D18078002801D103488170FA
:104C900070470000884B0100684B01001C40010078
:104CA000704770470149012048747047214C01004A
:104CB0000149002048747047214C0100F0B586B0CE
:104CC000002005905548C17C5548019000296ED0C0
:104CD000544908780290002869D0534A0E20105E8B
:104CE000FF225F32904262DC029805285FD84F486D
:104CF000807800285BD18446029A4D480090002AB3
:104D000078D9604616214143464809180920800198
:104D10000918887801285BD0202859D0C878012844
:104D200056D0122854D04E790879321A521CD2B279
:104D30000492CA7989799646531A5B1CDBB20393B5
:104D400000230C4605468A4214D386420ED32822FD
:104D5000384F4A43D7194200BA5E9A4202DD0C46E8
:104D600005461346401CC0B28642F4D2491CC9B263
:104D70008E45EAD20498012805D0042828D3039848
:104D8000012815D024E00398042821D32820444387
:104D90002848690020184018014640393E228A5EA2
:104DA000642A15DA0221415E64291BDB10E02FE042
:104DB000282044431F486900201840180146403904
:104DC00018228A5E642A03DA2821415E642909DBFD
:104DD0006046401CC0B284460298604591D8059850
:104DE000002807D001990120C87300980521C170DF
:104DF00004E0FFE70098C078002809D000980099E7
:104E0000C078401EC87001990120C87306B0F0BD7B
:104E100001990020C87306B0F0BD0000114E0100DA
:104E2000A84B0100C667010074EE010004510100A7
:104E30002451010020A60100F0B5D84D87B0287894
:104E4000002877D01621D648FBF706FBD5480590F9
:104E5000D5480690D54800240490D54D00212878E7
:104E6000002811D9D34B0E224A43D2182032167C87
:104E7000A64205D10E225143C9182031897E04E093
:104E8000491CC9B28842EED8FF2188427ED9162239
:104E90005143C74A28238A180921890151188A7861
:104EA000C97894465A43C44B0091D5184B00BB496E
:104EB0006600EA5E7118029160314E7D0F7D360208
:104EC0003E43B24203DDEE5A0E75360A4E75029924
:104ED000823102914E7A097A37020F432146162613
:104EE0007143B34E8E1909218901711889898F4246
:104EF00003D2029E3172090A7172059909788142C2
:104F000001D2059908701A2021464143AB48081880
:104F1000017C00293AD0407C002837D160460390BC
:104F200000980290962A06DD0698417A007A0E02D1
:104F3000064305E02FE13C3A96B2322E00D23226EB
:104F40000020964901904978002927D0614604291C
:104F500074D899495A182821515EB14241DD002583
:104F600000206F1C0090F8B201233246029900F035
:104F70002BF901A9485500200090F8B200233246D1
:104F8000029900F021F901A9495D00E0BAE040185A
:104F900001A94855FDB2022DE2D37BE00298042816
:104FA00020D80220285EB04274DD002501206F1C4D
:104FB00003460090F9B23246039800F005F901A9C2
:104FC000485501200090F9B200233246039800F0C2
:104FD000FBF801A9495D411801A84155FDB2022D18
:104FE000E4D357E07649029A887EC31E934251DC8F
:104FF0004000285EB0424DDD002501AF0120009049
:105000006F480123807E3246401BC1B2039800F0F6
:10501000DBF878550120009069480023807E3246F5
:10502000401BC1B2039800F0CFF8795D4018785565
:105030006D1CEDB2022DE1D32CE0FFE7604AD17E7A
:10504000CD1E654526DC282569435B4D4919C95E9F
:10505000B1421FDD002501AF002000905848012318
:10506000C07E3246401BC0B2029900F0ADF87855C0
:105070000020009052480023C07E3246401BC0B240
:10508000029900F0A1F8795D401878556D1CEDB2D9
:10509000022DE1D36846457901798D4232D83F48E7
:1050A00040780028049822D0407B434A2A23D35ECC
:1050B000B34214DC424B2827DA7E9B7E7A433E4F74
:1050C0005B00D219D75EB74209DC3B4FDF192823BA
:1050D000FB5EB34203DC0223D35EB34201DD401E1C
:1050E000C0B2814205D92E49012008550AE0007A54
:1050F000DBE7401E814205DD481B022802DD28480F
:1051000001210155641CE4B20B2C00D2A5E62C4908
:105110000020CA7D8B7D17024A7E097E16020E434F
:105120001E491F434B780125643E643F1C49095CBE
:10513000002907D01A2201465143204A89184D748C
:105140000D7406E01A211D4A41438918497C002943
:105150001DD01A21194A41438918CA88642A03D3E9
:10516000BA4201DC002B06D00A89642A0FD3B2426E
:105170000DDC002B0BD0142402466243114CA554C5
:10518000121954782C43547000224A740A74401C3B
:10519000C0B20B28CAD307B0F0BD000055400100D3
:1051A00023710100F54001007840010075400100C5
:1051B000C6670100B4E5010020A60100E651010028
:1051C000AD480100EA660100F0B49C4628231A4F5E
:1051D0004343DB194E009B5F0024049D934227DD6F
:1051E000164BDE7E6346002B0CD0002D01D003460B
:1051F00000E00B46002B1BD0002D01D0401E06E026
:10520000491E09E0002D04D0864211D3401CC0B2D3
:1052100003E08E420CD3491CC9B2282307465F43E2
:10522000054B641CFF184B00FB5EE4B29342D9DCD3
:105230002046F0BC7047000020A60100AD480100E8
:10524000F0B5FF4F85B03878002871D005F05AFCD2
:10525000FC49FD4E887F00220123002807D0487FAB
:10526000401CC0B24877032802D9F27400E0F374FE
:10527000B07CF64D00281FD0A888F54C401C80B2A9
:10528000A880A04200D3AC80F2480390F24801907D
:10529000F248002400901A2021464143F0480918A2
:1052A000C87C01280AD0042877D0002876D00228AC
:1052B00075D0032873D045E3AA80E5E7E04840783D
:1052C000002836D0DE4A630001209A18400260327E
:1052D0001075000A5075087F420701D402070AD5ED
:1052E000CA884A810A898A8101220A740022DD4B18
:1052F0004A776700DA53C20605D4820603D4420611
:1053000001D4C20911D0CA884A810A898A8101223E
:105310000A74D54B00226700DA53D44B1A554A77EA
:1053200003091B01D24A5B1C1355C2070FD10CE0C5
:105330000DE3C34863001B18184600226030027555
:105340004275223002724272C5E7820744D50022BC
:105350000A74CA884A810A898A81B9494978002928
:105360000ED0C1071CD00020C14BC04A01211F5CD8
:10537000FF0700D01154401CC0B20B28F7D3E1E264
:105380000020BB4BB94A01211F5CFF0700D011541C
:10539000401CC0B20B28F7D3D4E210E0F2E005E1E4
:1053A000800719D50020B24BB04A01211F5CFF07CE
:1053B00000D01154401CC0B20B28F7D3C2E2087CC5
:1053C000002803D0F07C002806D106E001219D488A
:1053D000F174002242778177B4E2087F02075AD441
:1053E000400733D5964B6200D01884468230477A06
:1053F000007A3F020743052F0AD2B07C002807D16C
:105400009C480078002803D10398007801280CD02C
:10541000D87C9B7C00021843924B9A5A82423AD223
:105420009248005D002802D08CE23220F4E7487CEC
:10543000002830D160466030417D027D0802104373
:10544000C82828D9204603F0FDFF7BE2B07C002865
:1054500003D07B4A5078002873D0854F385DC20650
:105460001AD581486200805A019A537812781B023B
:10547000134398420FD2497C00290CD1A988884255
:1054800003D37A48005D002805D17B48005D0028E1
:1054900052D00421395555E2820618D5724862006F
:1054A000805A009A537A127A1B021343984268D2A8
:1054B000497C002965D1A988884203D36B48005DE7
:1054C00000285ED16C48005D002835D0E1E7420637
:1054D00018D565486200805A019A537B127B1B02E3
:1054E000134398424DD2497C00294AD1A988884269
:1054F00003D35E48005D002843D15F48005D00286B
:105500001AD0C6E7C0093CD057486200805A009ABA
:10551000537D127D1B021343984232D2497C0029ED
:105520002FD1A988884203D35048005D002828D194
:105530005148005D0028ACD1204603F083FFA8E766
:10554000FFE74B48005DC30605D4830603D443063A
:1055500001D4C00915D0434BD77C6000927C1B5A04
:105560003F021743BB420CD2497C002909D13E4976
:10557000085AA988884200D264E73C48005D0028A8
:10558000FAD0DFE10020374B0874620098521633DE
:105590009852374A10550B32105548742146142240
:1055A0005143364A8B1858705054CBE1087F02079C
:1055B00066D442076ED52B4F6200BB5A5B1CBB52B0
:1055C0000A7C002A65D01E4A5278002A19D0CA885F
:1055D0004B89D21A00D5524293B20A898F89D21BC5
:1055E00000D5524297B2BB4200D83B46B27C002A5B
:1055F0000ED0134A577D127D3F0217437A04120CD6
:105600000BE00A898B89D21A00D5524293B2EDE79A
:105610000B4F7A7D3F7D12023A434F7C002F06D01C
:10562000074A577D127D3F021743BA04120C93427A
:105630002FD9114A125D002A2BD10122CA7420E011
:105640005540010004510100B540010044510100E2
:10565000DCFF0000F540010097400100954001008B
:10566000E65101000A650100206501004165010065
:1056700036650100C667010023710100EA6601007A
:10568000D1E000221423B34F0A7463434A74DB1938
:105690005A7004E10A7C012A46D1AF4A5278002AA6
:1056A00019D0CA884B89D21A00D5524293B20A89BE
:1056B0008F89D21B00D5524297B2BB4200D83B46DD
:1056C000B27C002A0ED0A44A577D127D3F021743B8
:1056D0007A04120C0BE00A898B89D21A00D5524247
:1056E00093B2EDE79C4F7A7D3F7D12023A434F7CA7
:1056F000002F06D0984A577D127D3F021743BA0407
:10570000120C934210D9954A125D002A0CD1012344
:10571000CB740A744A74224614277A438D4FBB54C3
:10572000D21957781F435770B27C002A03D08A4A97
:105730005278002A78D0C20605D4820603D44206E5
:1057400001D4C2096DD00A7C002A6CD06200844F5B
:105750000292BB5A5B1C9BB2BB529C46C2060FD541
:10576000019A577812783F021743BC4538D37D4FD2
:105770003A5DD30734D012091201921C3A552FE03A
:1057800082060ED5009A577A127A3F021743BC451B
:1057900026D3744F3A5DD30722D012091201921C0E
:1057A0001DE042060BD5019A577B127B3F0217433F
:1057B000BC4515D36B4F3A5DD3070DD110E0C2093C
:1057C0000ED0009A577D127D3F021743BC4507D388
:1057D000644F3A5DD30703D012091201121D3A55E6
:1057E000614B029A9F5A5C4AD37C927C1B02134302
:1057F0009F4254D24A7C002A51D1AB889C4503D3A6
:105800005A4A125D002A4AD1564A135D9B0746D573
:10581000524B1B5D002B42D10B7404231355012204
:10582000CA743CE000E08DE0C20605D4820603D4D1
:10583000420601D4C20932D0494F6200BB5A5B1CF8
:105840009BB2BB520A7C002A29D00A898F89D21BBD
:1058500000D5524297B2404ABC46577D127D3F0266
:1058600017437A04120C944503D93C4A125D002A6E
:1058700011D0009A577D127D3F021743BB420ED3D1
:10588000364A125D002A0AD1AA88934203D3374AC6
:10589000125D002A03D10122CA7400220A74C207D1
:1058A00001D182074ED52C4A5278002A04D0C30772
:1058B00021D000202D4B0EE02A4F2C4A00203B5CCB
:1058C000DB0701D001231354401CC0B20B28F6D3D0
:1058D00027E0002A06D0234F3F5C112F06D1012775
:1058E0001F5403E01F4F3F5CFF07F8D1401CC0B2BC
:1058F0000B28EED315E0800713D500201B4B01E0E9
:10590000002A06D0174F3F5C212F06D101271F54D4
:1059100003E0144F3F5CFF07F8D1401CC0B20B28D6
:10592000EED3087C00280DD0487C00280AD10874EA
:10593000204614225043074A01211154801842780E
:105940000A434270641CE4B20B2C00D2A3E405B0FD
:10595000F0BD0000EA66010055400100237101001E
:1059600020650100366501000A65010041650100FE
:10597000F8B5134E0025B07D002820D9114F0E2018
:105980001149684342180F2080011418207E09181D
:105990001120C0010818007804280BD03989608BC9
:1059A0000022FEF797FD60837989A08B0122FEF724
:1059B00091FDA0836D1CB07DEDB2A842DFD8F8BD8B
:1059C00074E901006E660100B4E501000849002891
:1059D00008D00848807B022803D10748007F0128AF
:1059E00002D03F20087570472A20087570470000D4
:1059F000A0500300684B0100D14C01000448054948
:105A00000078C00040180449C079C874704700008D
:105A1000FC4F0100A7280100200003000320000420
:105A2000407C012807D0044804490078C000401891
:105A300003494078C8747047FC4F0100A728010053
:105A40002000030010B50C480078002805D0FEF7B0
:105A500075FA0CF0A5FA08F041FD0CF0BDF9074805
:105A6000807B012801D0022805D135200003817CEC
:105A7000CF221140817410BD334C0100684B0100EE
:105A800010B5044900200874FBF744F808F0C2FC84
:105A900010BD0000405003000748FD22C17D4906AB
:105AA000490E490849001140C1750448022101729C
:105AB000034881737047000054EE01000451010057
:105AC000D14D010010B5C0210B48FEF769FDC02182
:105AD0000A48FEF765FD00210948FEF761FD002137
